:1000000004C1000023C1000021C100001FC1000085
:100010001DC100001BC1000019C1000017C1000074
:1000200015C1000013C1000011C100000FC1000084
:100030000DC100000BC1000009C1000007C1000094
:1000400005C1000003C1000001C10000FFC00000A5
:10005000FDC00000FBC00000F9C00000F7C00000B8
:10006000F5C00000F3C00000F1C00000EFC00000C8
:10007000EDC00000EBC00000E9C00000E7C00000D8
:10008000E5C00000E3C0000036C10000DFC0000092
:10009000DDC00000DBC00000D9C00000D7C00000F8
:1000A000D5C00000D3C00000D1C00000CFC0000008
:1000B000CDC00000CBC00000C9C00000C7C0000018
:1000C000C5C00000C3C00000C1C00000BFC0000028
:1000D000BDC00000BBC00000B9C00000B7C0000038
:1000E000B5C00000B3C00000B1C00000AFC0000048
:1000F000ADC00000ABC00000A9C00000A7C0000058
:10010000A5C00000A3C00000A1C000009FC0000067
:100110009DC000009BC0000099C0000097C0000077
:1001200095C0000093C0000091C000008FC0000087
:100130008DC000008BC0000089C0000087C0000097
:1001400085C0000083C0000081C000007FC00000A7
:100150007DC000007BC0000079C0000077C00000B7
:1001600075C0000073C0000071C000006FC00000C7
:100170006DC000006BC0000069C0000067C00000D7
:1001800065C0000063C0000061C000005FC00000E7
:100190005DC000005BC0000059C0000057C00000F7
:1001A00055C0000053C0000051C000004FC0000007
:1001B0004DC000004BC0000049C0000047C0000017
:1001C00045C0000043C0000041C000003FC0000027
:1001D0003DC000003BC0000039C0000037C0000037
:1001E00035C0000033C0000031C000002FC0000047
:1001F0002DC000000C942B0F0C94E80F1A0B080B69
:100200000B0B0E0B110B140B170B11241FBECFEF92
:10021000CDBFDFE3DEBF00E00CBF10E2A0E0B0E244
:10022000ECEFF2E200E00BBF02C007900D92A03DA0
:10023000B107D9F723E2A0EDB0E201C01D92A63FBD
:10024000B207E1F70E94D4100C947C11D9CEE0E6FD
:10025000F6E022E0218330E1318381E0818390E286
:100260009183A0E4B6E012968C93A0EAB6E01596CE
:100270008C93159716962C93169744E016964C93EC
:10028000169748E016964C93169716963C93169739
:1002900016969C93169740E416964C93169740E852
:1002A00016964C9386833583268396830895089506
:1002B00040E058E161E080E296E0E2D240E058E1BF
:1002C00062E080E296E0DCD240E058E164E080E267
:1002D00096E0D6D240E058E168E080E296E0D0D2E5
:1002E000E0E2F6E08FE0828781E081870895E0E236
:1002F000F6E0128608951F920F920FB60F92112406
:100300000BB60F922F933F934F935F936F937F930F
:100310008F939F93AF93BF93EF93FF9381E0E0E2BE
:10032000F6E084870E946F0DFF91EF91BF91AF912E
:100330009F918F917F916F915F914F913F912F91FD
:100340000F900BBE0F900FBE0F901F901895089541
:100350008091D0209091D120019739F48EED93E2D5
:1003600024D31092D0201092D12008959923E4F044
:1003700060E070E0B5E6A0E0F9EEE3E012C02150E5
:10038000310921153105D9F7415051094115510560
:1003900019F02F2F3E2FF3CF6F5F7F4F86179707F0
:1003A0001CF04B2F5A2FF5CF08954F925F926F920A
:1003B0007F928F929F92AF92BF92CF92DF92EF92F5
:1003C000FF920F931F93CF93DF93EC0180E1E0E660
:1003D000F6E0868385E090E0C9DF60EC70E280E0C3
:1003E00090E20E946C11892B09F07DC088818C34C9
:1003F00071F58CE49FE4A4E4B0E080930020909336
:100400000120A0930220B0930320C0E6D6E080E153
:100410008E8302E00D8310E21E838AE090E0A6DF67
:100420001D838AE090E0A2DF0E831E838AE090E0C5
:100430009DDF1D838AE090E099DF0E831E838AE0B2
:1004400090E094DF1D838AE090E090DF47C1813423
:1004500011F589E494E4ACE4B0E08093002090933B
:100460000120A0930220B0930320C0E6D6E082E0F2
:100470008D8310E21E838AE090E078DF1D838AE09E
:1004800090E074DF1E838AE090E070DF1D838AE0D5
:1004900090E06CDF23C1833509F020C183E59DE442
:1004A000A0E5B0E08093002090930120A09302206B
:1004B000B0930320C0E6D6E080E18E8302E00D8396
:1004C00010E21E838AE090E051DF1D838AE090E015
:1004D0004DDF0E831E838AE090E048DF1D838AE0B3
:1004E00090E044DFFBC064EC70E280E090E20E94A8
:1004F0006C11892BD9F4888190E08093D22090935D
:10050000D3208CE495E4AEE4B0E080930020909397
:100510000120A0930220B093032080E2E0E6F6E001
:1005200085831092D4201092D520D8C068EC70E258
:1005300080E090E20E946C11892B09F045C088810F
:10054000813349F482E0E0EAF6E0858381E0E0E689
:10055000F6E085830AC0803341F482E0E0EAF6E009
:10056000868381E0E0E6F6E08683C0E6D6E082E0BE
:100570008E8310E21E838AE090E0F8DE1D838AE01D
:1005800090E0F4DE8091D4209091D5200196809364
:10059000D4209093D5202091D2203091D32082175F
:1005A000930708F49BC01092D4201092D52089E4C0
:1005B00094E4ACE4B0E08093002090930120A093F9
:1005C0000220B09303208AC06CEC70E280E090E2DD
:1005D0000E946C11892B09F081C0C880D12C81E068
:1005E000E0E6F6E086831C141D040CF04AC000E02F
:1005F00010E0C0E6D6E06894772474F80F2EF0E49B
:10060000EF2EF6E0FF2EF02D0F2EF0EAAF2EF6E0E3
:10061000BF2EF02D6894662462F80F2EF1E34F2E62
:10062000F02D0F2EF0E35F2EF02D6894882481F8D2
:100630006894992495F87E82F701808580FD09C031
:10064000F5016682F801E152FC4D50820F5F1F4FA9
:100650000CC0F701808580FF08C0F5016582F801B4
:10066000E152FC4D40820F5F1F4F8E829E828AE0D6
:1006700090E07CDE9D828AE090E078DE0C151D051E
:10068000D4F26FED73E28EED93E20E94751181E07A
:1006900090E08093D0209093D12089E494E4ACE45E
:1006A000B0E08093002090930120A0930220B093AB
:1006B0000320C0E6D6E082E08D8310E21E838AE04C
:1006C00090E054DE1D838AE090E050DE1E838AE0D5
:1006D00090E04CDE1D838AE090E048DEDF91CF9110
:1006E0001F910F91FF90EF90DF90CF90BF90AF9050
:1006F0009F908F907F906F905F904F900895CF93D1
:10070000DF9300D01F92CDB7DEB78FEF80937000DC
:1007100080937100809372008093730080937400C3
:10072000809375008093760065E081E490E075D653
:100730006CE170E082E077D68A836DE170E082E060
:1007400072D6898389819A81019621F480E493E2AB
:1007500089839A8389819A818B839C83E0E6F0E088
:1007600082838C8183838FB7F894E0E5F0E09081F9
:10077000926090838FBF818181FFFDCF8FB7F89406
:10078000A0E5B0E016969C911697997F16969C93DB
:100790001697E0E6F0E090E895839BEB968316963B
:1007A0009C911697946016969C939081916090838B
:1007B0008FBF61E080E490E030D68FB7F894E0E539
:1007C000F0E090819E7F90838FBF2496CDBFDEBFE7
:1007D000DF91CF9108959FB7F894E82FF0E0E059AA
:1007E000FF4F60958081682360839FBF08959FB706
:1007F000F894E82FF0E0E059FF4F8081682B608388
:100800009FBF0895863011F468E101C060E0E0E523
:10081000F0E0818181FD24C08FB7F89490819260CF
:1008200090838FBF818181FFFDCF8FB7F894A0E5C2
:10083000B0E016969C911697997F16969C93169702
:10084000E0E6F0E090E895839BEB968316969C910A
:100850001697946016969C939081916090838FBFB9
:10086000636084E490E0D9D560E480E0B4CF08957B
:1008700060E480E0BCDF60E084E490E0CEC50895F1
:10088000CF93DF93FC01709620E030E0C62FD0E0DC
:10089000DE01022E02C0B595A7950A94E2F7A0FDED
:1008A00050832F5F3F4F31962830310589F740FF45
:1008B0000AC041FF03C0FC01658302C0FC016683DE
:1008C000FC01618302C0FC016283DF91CF91089536
:1008D00080E008953091E8232091E923822F90E071
:1008E0000397E1F431111CC08091EC239091ED232A
:1008F0000497C1F486ED90E28093EE239093EF236A
:100900008AEC94E08093F2239093F32384E090E0C8
:100910008093F0239093F12381E0089580E008957F
:1009200080E0089580E0089581E08093DC220895BE
:100930000F931F9303EB14E021E030E04AED50E207
:1009400060E082E00E942D0E1F910F910895109299
:10095000DE221092DD2281E08093DC22E9DF81112A
:100960000C9430110895811107C06130710519F49C
:100970008AED90E21ADDDCCF08950C9434110895CD
:100980002AE634E049E050E26DED72E28EED92E24B
:1009900040C008958091F0239091F123049721F4B1
:1009A00086ED90E20C94371108950F931F93CF9327
:1009B0002091DC22222341F1CFB7F89420E032E0ED
:1009C000ECEDF0E2DF01A9011D9241505040E1F74A
:1009D000FC01ACEDB0E201900D9221503040D9F70E
:1009E00004E914E020E032E04CED50E260E081E800
:1009F0000E942D0E91E089278093DC22CFBF909139
:100A0000DC2281E0892701C080E0CF911F910F9106
:100A10000895CF93DF93EA014091E62344230CF03D
:100A200062C0407609F040C02091E7232630E1F50E
:100A30006ED1FC012285213299F52091E9232132E2
:100A4000B9F49C01275F3F4F2093EE233093EF23AF
:100A500081852091EC233091ED2390E02817390710
:100A600008F4C9018093F0239093F12381E064C0DE
:100A7000FC013785231316C0C093EE23D093EF23D8
:100A8000208931898091EC239091ED232817390733
:100A900008F4C9018093F0239093F12381E04CC0C6
:100AA00080E04AC080E048C04032E9F52091E72369
:100AB000223019F0233061F038C08093EE239093F8
:100AC000EF2381E090E08093F0239093F12334C0F2
:100AD0006093EE237093EF2381E090E08093F02306
:100AE0009093F12329C04076403209F54091E723E5
:100AF0004A3039F04B3059F04930D9F4F9011995A1
:100B00001BC02091E923FC01208381E015C0809166
:100B1000EC239091ED23892B71F48091E823FB0164
:100B2000808381E009C080E007C080E005C080E0EC
:100B300003C080E001C080E0DF91CF910895E09193
:100B4000E422F091E5220190F081E02D22813381B1
:100B50002E0F3F1FFC014081E40FF11DE217F30748
:100B6000A0F481818430A1F0861306C014C0818175
:100B70008430A1F08617A9F08081E80FF11DE217FB
:100B8000F307A8F380E090E0089580E090E00895F6
:100B900080E090E008958E2F9F2F089580E090E0F0
:100BA00008958E2F9F2F08958091E8238F778CC70B
:100BB00008959091E622992381F1E091E422F09149
:100BC000E5220190F081E02D9481891740F5E093B2
:100BD000E222F093E322228133812E0F3F1FE2179E
:100BE000F307F8F49181943061F49281981309C06D
:100BF0009381961306C0E093E222F093E32281E012
:100C000008959081E90FF11DE217F30758F3E0937F
:100C1000E222F093E32280E0089580E0089580E0EE
:100C2000089580E00895FF920F931F93CF93DF9371
:100C3000C82F60E0BEDFF82E882381F1A091E42266
:100C4000B091E522EC2FF0E0EE0FFF1F12962D91F0
:100C50003C911397E20FF31F00811181D801169682
:100C6000ED91FC9117971995682F8C2FA2DFF82E24
:100C70008823A1F0C091E222D091E32265E0CE0169
:100C80005EDFEC01009721F08A810E94ED0EF6CF25
:100C9000D8011296ED91FC91139719958F2DDF9144
:100CA000CF911F910F91FF9008951F93CF93DF93E2
:100CB000182F7FDF882339F1C091E222D091E322FF
:100CC00065E0CE013CDFEC01009741F04C815D8195
:100CD0006B818A811CD78111F3CF15C0A091E422CA
:100CE000B091E522812F90E0880F991F1296ED9127
:100CF000FC911397E80FF91F0190F081E02D01900E
:100D0000F081E02D1995DF91CF911F910895809189
:100D1000E2229091E322089565C60895CF938091D1
:100D2000E6228823C1F0E091E422F091E5220190CF
:100D3000F081E02D8481882371F0C0E08C2F73DF77
:100D4000CF5FE091E422F091E5220190F081E02D67
:100D50008481C81798F31092E6228091E72281FDE2
:100D60000E942D111092E7221092E822CF9108954F
:100D7000FCD5D4CF0895CF938091E622882341F10A
:100D8000E091E422F091E522A081B18114968C914A
:100D90008823F1F0C0E08C2F90E0880F991F02802B
:100DA000F381E02DE80FF91F0190F081E02D008420
:100DB000F185E02D309709F01995CF5FE091E4229D
:100DC000F091E522A081B18114968C91C81718F397
:100DD000CF910895EF92FF920F931F93CF93DF93DC
:100DE0001092F0231092F1231092F2231092F32329
:100DF0001092F4231092F5232091E62322230CF085
:100E000093C28091EC239091ED23009709F091C259
:100E100087C22F7109F09DC03091E723363081F0F1
:100E2000383009F48BC0311194C0029739F462E074
:100E300070E087EE92E262D601E0F5C100E0F3C116
:100E40002091E8233091E923832F9927823091055F
:100E500079F08330910569F1019709F067C08091BD
:100E6000482090914920DC016C9170E047D64DC03C
:100E7000E0914820F09149208189281708F058C056
:100E8000C9019927880F991F880F991FE0914A205F
:100E9000F0914B20E80FF91F80819181FC01628164
:100EA00073812CD6E091EE23F091EF2382E08183D1
:100EB0002CC033272130310559F020F02230310584
:100EC00059F038C064E070E08CEB90E217D61DC09A
:100ED00082EB90E229E003C086EA90E22BE0382F13
:100EE000A0E9B0E2E82FF92F819190E08D939D93D6
:100EF0008E2F831B8217C0F3220F62E0620F609374
:100F00008E2070E08EE890E2F9D58091EC239091EC
:100F1000ED232091F0233091F1238217930760F4A1
:100F20008093F0239093F12301E07DC100E07BC129
:100F300000E079C100E077C101E075C1019739F4A3
:100F400061E070E086EE92E2D9D501E06CC100E08C
:100F50006AC1213009F03FC03091E7233A30D9F51A
:100F6000019799F58091E622882389F1C091EA23BF
:100F7000D091EB23E090E422F090E522D701ED91AF
:100F8000FC918481C81728F560E08C2F12DE082FB1
:100F9000882309F448C1CE019927880F991FD701EA
:100FA0001296ED91FC911397E80FF91F0190F081D3
:100FB000E02D0680F781E02D19958093E12261E014
:100FC00070E081EE92E29AD52EC100E02CC100E0E3
:100FD0002AC100E028C1223009F027C12091E7236F
:100FE00021111EC1029779F48091EA23F1D590E096
:100FF0008093DF229093E02262E070E08FED92E236
:101000007DD501E010C100E00EC12F7109F0AFC025
:101010008091E7238330B9F118F48130B9F0A7C08B
:10102000853021F0893009F44BC0A1C08091EC23B8
:101030009091ED23892B41F484ED95E08093F22388
:101040009093F32301E0EFC000E0EDC08091EC232A
:101050009091ED23892B99F48091E8239091E923D5
:10106000019779F48091E7229091E8228D7F809317
:10107000E7229093E8220E942D1101E0D4C000E005
:10108000D2C000E0D0C08091EC239091ED23892B59
:1010900099F48091E8239091E923019779F4809164
:1010A000E7229091E82282608093E7229093E822E1
:1010B0000E942A1101E0B7C000E0B5C000E0B3C053
:1010C0008091EC239091ED23892B09F046C0FFD449
:1010D000882309F444C02091E8233091E923332781
:1010E000E0914820F0914920818990E08217930790
:1010F000C0F114DE8091E8239091E9238093E622E9
:10110000882389F199278150904C880F991F880F67
:10111000991FE0914A20F0914B20E80FF91FE093CE
:10112000E422F093E5220190F081E02D8481882370
:10113000E1F0C0E060E08C2FB8DD082F882309F4CF
:1011400072C0CF5FE091E422F091E5220190F0813E
:10115000E02D8481C81770F366C000E064C000E031
:1011600062C000E060C001E05EC001E05CC0213010
:1011700009F58091E7238B30E9F48091EC2390917D
:10118000ED23892B99F48091E622882389F0C09180
:10119000EA23D091E8238C2F46DD082F882309F419
:1011A00042C06D2F8C2F81DD082F3DC000E03BC079
:1011B00000E039C02230C9F58091E723813019F071
:1011C0008330B1F02FC08091EC239091ED23892BD7
:1011D00059F48091E8239091E923892B39F4809187
:1011E000EA2311D5082F1FC000E01DC000E01BC07E
:1011F0008091EC239091ED23892B71F48091E82369
:101200009091E923892B51F4CAEED3E28881ACD5C1
:10121000888100D6082F07C000E005C000E003C0A9
:1012200000E001C000E0011189C08091E6238F71C8
:101230008130C1F58091E6228823A1F1C091EA2393
:10124000D091EB230091E4221091E522D801ED9199
:10125000FC918481C81730F560E08C2FAADC8823CC
:1012600009F1CE019927880F991FD8011296ED91A7
:10127000FC911397E80FF91F00811181D801169690
:10128000ED91FC9117971995682F8C2F92DC88238C
:1012900049F0D8011496ED91FC9115971995082FF6
:1012A00081114CC08091E6238F718230D9F58091F5
:1012B000E622882389F1E091E422F091E522A081E1
:1012C000B18114968C91882349F110E0212F30E0F0
:1012D000220F331F0280F381E02DE20FF31FC08144
:1012E000D181EE81FF811995682F812F62DC082F53
:1012F000882321F1EC81FD811995082F81111EC0F1
:101300001F5FE091E422F091E522A081B181149663
:101310008C911817D8F212C000E010C000E00EC087
:1013200000E00CC000E00AC0822F807609F07DCF7B
:101330006CCE322F307609F078CF6BCD802FDF91D5
:10134000CF911F910F91FF90EF90089541E050E0F1
:1013500061E080EA96E094DA41E050E062E080EA01
:1013600096E08EDA41E050E064E080EA96E088DAC8
:1013700041E050E068E080EA96E082DA41E050E047
:1013800060E180EA96E07CDA41E050E060E280EAE9
:1013900096E076DA41E050E060E480EA96E070DAC8
:1013A00041E050E060E880EA96E06ADA41E050E02F
:1013B00061E080E696E064DA40E050E061E080E4DD
:1013C00096E05EDA41E050E062E080E696E058DACE
:1013D00041E050E060E280E696E052DA41E050E021
:1013E00060E180E696E04CDA40E058E161E080E2BE
:1013F00096E046DA40E058E162E080E296E040DACA
:1014000040E058E164E080E296E03ADA40E058E1FA
:1014100068E080E296E034CA08951BBEFC0128ED26
:1014200024BF608308954091CA01E62FF72F80936F
:10143000CA0184914093CA010895811118C0909106
:10144000DC23992389F09FB7F894E1EEF3E2208141
:10145000215020839FBF08C09FB7F894E1EEF3E2CC
:1014600020812F5F20839FBF8093DC23089590917C
:10147000DC23992389F3F8CF0F93E8ECF4E0808123
:101480008F7D808380818F7D8083E0EBF3E202E0BB
:1014900005931092B2231092B32300E2069300E466
:1014A0000693E8EAF3E200E2069300E40693109262
:1014B000F2231092F3231092F4231092F52310924A
:1014C000F0231092F12310929A230F9108950F9315
:1014D00085E080939A23E1EBF3E204E00593E9EAE7
:1014E000F3E204E005930F9108950F9383E0809356
:1014F0009A231092B2231092B323E0EBF3E202E0BE
:1015000006930F910895E091F223F091F323309721
:1015100009F0199508950F93CF93DF9380919A2343
:10152000833019F4F0DFA8DF60C08091962390919A
:101530009723C091F023D091F123C81BD90B71F5EB
:101540002091982330919923820F931F80939823A1
:10155000909399232091EC233091ED2382179307E8
:1015600021F08091E922882341F084E080939A233E
:10157000E8EAF3E202E0069338C0E091F423F09148
:10158000F523309799F01995882381F010929623CE
:1015900010929723C091F023D091F123C830D10548
:1015A00028F01092E922C8E0D0E003C081E08093E7
:1015B000E922C093B223D093B323809196239091D4
:1015C00097232091EE233091EF23280F391F20938A
:1015D000B4233093B523C80FD91FC0939623D0935B
:1015E0009723E0EBF3E202E00693DF91CF910F91B6
:1015F0000895FC018181877090E0FC013197E7300C
:10160000F10518F4E250FF4F58C688E090E00895C5
:1016100080E290E0089580E490E0089580E890E012
:10162000089580E091E0089580E092E008958FEFC2
:1016300093E0089580E190E00895282F2F7030E026
:10164000220F331F992787FD90958827990F881FB0
:101650009927820F931F02979C01220F331F220F9D
:10166000331F220F331F820F931F86599C4D0895FD
:101670000F93CF938091CC0480FF62C081E0809370
:10168000CC04E8EAF3E200E80693E0EBF3E200E8DA
:1016900006938093CA04E8EAF3E200E1069380919E
:1016A0009A23882329F08350823008F42CDFE4DE6B
:1016B0008091AA239091AB23089709F043C088E05A
:1016C000EEE8F3E2A6EEB3E201900D928A95E1F71F
:1016D000E8ECF4E080818062808380818062808396
:1016E00079DBC82F811103C0F2DEC1E02CC08091EC
:1016F000E62388236CF41092982310929923109279
:1017000096231092972382E080939A2304DF1BC0D4
:101710002091EC233091ED23232B11F4E6DE13C04E
:101720001092982310929923109296231092972347
:1017300081E080939A23E8EAF3E202E0069303C093
:10174000C0E001C0C1E08C2FCF910F910895BF92EE
:10175000CF92DF92EF92FF920F931F93CF93DF937D
:10176000B82E6BDFEC011B2D111F1127111F8B2DC4
:101770008F70E82EF12CEE0CFF1CE10EF11CC7015E
:10178000880F991F880F991F880F991F9C01285552
:101790003C4D7901C9012DDF6C01112309F459C0B9
:1017A000D70116962D913C9117978D819E81280F18
:1017B000391F2D833E838B819C8128173907B9F10E
:1017C000FC01E21BF30B9F012115F4E03F0738F009
:1017D0002FEF33E0C901B6015CD5281B390B888196
:1017E00081FF09C0C901B60154D541E0892B09F038
:1017F00040E0942F01C090E0888190FB81F98883BC
:10180000D70116961D921C92179712962D933C9312
:10181000139729813A818D819E81820F931F14969F
:101820008D939C931597F70102E0069394C08881ED
:1018300081FF83C08D7F8883D70116961D921C92ED
:10184000179712961D921C921397F70102E00693C8
:1018500082C0D70112960D911C911397888182FF47
:1018600013C0E981FA812D813E818B819C81B60173
:1018700010D5B0E4BB9EB001112466557D4DAC017E
:10188000CF01820F931F1FD52D813E81200F311F65
:101890002D833E83EB81FC81E217F30710F4ED8387
:1018A000FE83D70116968D919C911797801791070B
:1018B00009F043C08D819E81E817F90709F43DC006
:1018C000E81BF90BE115B4E0FB0740F0EFEFF3E0A4
:1018D000CF01B601DED4E81BF90B05C0CF01B6017C
:1018E000D8D4E81BF90BD70112961D921C921397BE
:1018F000EC15FD0578F4888184608883B0E4BB9E94
:10190000C001112486559D4DF70184839583C682BD
:10191000D7820FC029813A818D819E81820F931FCA
:10192000D70114968D939C9315971696ED93FC937F
:101930001797F70102E006930EC0888180FF0BC065
:101940008E7F8883EF81F885309729F06D817E81C5
:101950004B2D80E01995DF91CF911F910F91FF9052
:10196000EF90DF90CF90BF900895CF93CFB7F894CA
:10197000E1ECF4E080818E7F80831092C0041082BD
:101980000E94380480E059DD8FB7F894E5EEF3E269
:101990009081915090838FBFCFBFCF910895CF9307
:1019A000CFB7F89481E049DDEAECF4E080E480838D
:1019B00080E28083E1ECF4E0808181608083A9ECA7
:1019C000B4E08C9182608C93E8ECF4E080818064D8
:1019D00080838C9181608C93808180688083CFBF6D
:1019E000CF910895CF93DF93C0E6D0E0188280E3D3
:1019F0000E940204E0ECF4E080818064808381E056
:101A00008883CFB7F8941092A9231092B123109233
:101A1000B9231092C1231092C9231092D123EAE670
:101A2000F3E280818E7F8083E3E7F3E280818E7F23
:101A30008083ECE7F3E280818E7F8083E5E8F3E248
:101A400080818E7F80836AE170E082E0ECDC8F3FF2
:101A500019F08093FA0403C08FE18093FA046BE1DC
:101A600070E082E0E0DC8F3F19F08093FB0403C05C
:101A70008FE18093FB04E0ECF4E08081826080835E
:101A800080818068808380818061808388EA93E29E
:101A9000868397838081806280838FEF8093C504E3
:101AA000E8ECF4E08081816080831092DC238FB7C2
:101AB000F894E5EEF3E290819F5F90838FBF6FDF34
:101AC000CFBFDF91CF9108958093C3040895809193
:101AD000C30408958091D8239091D92308958091CB
:101AE000DC2381110AC081E0A8DCE1ECF4E0808114
:101AF0008B7F808380818460808308958093EE2330
:101B00009093EF236093F0237093F1230895E82FCF
:101B1000EF70F0E0EE0FFF1F992787FD9095882763
:101B2000990F881F9927E80FF91FEE0FFF1FEE0F7F
:101B3000FF1FEE0FFF1FE855FC4D8181807C09F0EF
:101B400043C06370613029F010F480E403C080E882
:101B500001C080EC40385105E1F050F440325105AD
:101B6000A1F04034510599F04031510561F419C09C
:101B7000411592E0590789F04F3F93E0590779F0FA
:101B80004115514041F020E00DC022E00BC023E0A0
:101B900009C024E007C025E005C026E003C027E017
:101BA00001C021E0118296E09083822B81838181A4
:101BB000807C803C21F481818770873039F081817D
:101BC0008062818381E0089580E0089581E0089536
:101BD000E82FEF70F0E0EE0FFF1F992787FD90953B
:101BE0008827990F881F9927E80FF91FEE0FFF1F0D
:101BF000EE0FFF1FEE0FFF1FE855FC4D818182FBAA
:101C0000882780F90895E82FEF70F0E0EE0FFF1FAE
:101C1000282F332727FD30952227330F221F332704
:101C2000E20FF31FEE0FFF1FEE0FFF1FEE0FFF1F60
:101C3000E855FC4D918192FF0EC091819B7F91836D
:101C4000FCDCFC01808180FF06C08E7F80830780E2
:101C5000F085E02D199581E008957F928F929F92F3
:101C6000AF92BF92CF92DF92EF92FF920F931F93AA
:101C7000CF93DF93982E862E5A016901DEDC7C011A
:101C8000792C771C7724771CC92DCF70D0E0CC0F2E
:101C9000DD1FC70DD11DCC0FDD1FCC0FDD1FCC0FFD
:101CA000DD1FC855DC4D8981807C09F44BC08981DA
:101CB000807C803C19F0898182FD46C08FB7F89402
:101CC000F701908190FF03C08FBF712C3EC0F701D8
:101CD0009081916090838FBFF701A182B282C3820D
:101CE000D4821582168207831087811006C091E086
:101CF000C114D10419F090E001C091E0F701808196
:101D000090FB81F98B7F8083772019F01E821F82E0
:101D100014C08981807C803C61F4CE016ADCBC0106
:101D2000C601B7D2892B29F0F70180818E7F80838D
:101D30000CC01A821B821E821F82892D08DD772427
:101D4000739403C0712C01C0712C872DDF91CF914A
:101D50001F910F91FF90EF90DF90CF90BF90AF90C9
:101D60009F908F907F900895FF920F931F93CF9332
:101D7000DF93182FF82EFF1CFF24FF1CC82FCF70F5
:101D8000D0E0CC0FDD1FCF0DD11DCC0FDD1FCC0F50
:101D9000DD1FCC0FDD1FC855DC4D4FDCDC01FE0123
:101DA00002E005938C9180FF12C08E7F8C93179672
:101DB000ED91FC911897309751F0FF2019F06E814A
:101DC0007F8102C06A817B81412F81E01995DF917B
:101DD000CF911F910F91FF900895CF93C82FC4DF2B
:101DE000EC2FEF70F0E0EE0FFF1F8C2F992787FD8F
:101DF00090958827990F881F9927E80FF91FEE0FF4
:101E0000FF1FEE0FFF1FEE0FFF1FE855FC4D118265
:101E1000CF9108950F93E82FEF70F0E0EE0FFF1FC2
:101E2000282F332727FD30952227330F221F3327F2
:101E3000E20FF31FEE0FFF1FEE0FFF1FEE0FFF1F4E
:101E4000E855FC4D91819460918301E006938CDF0D
:101E500081E00F9108951F920F920FB60F921124F7
:101E60000BB60F920F932F933F934F935F936F9304
:101E70007F938F939F93AF93BF93EF93FF93809143
:101E8000CB0488233CF480E88093CA040E94BB06FC
:101E9000D9D18AC08091CB0482FF20C084E0809396
:101EA000CA048091B02386FF7FC08091CC0481FD5D
:101EB0007BC0DEDB811178C080919A23813011F4E0
:101EC00014DB72C0843009F06FC0E1EBF3E204E090
:101ED0000593E9EAF3E204E0059366C08091CB0440
:101EE00081FF5DC082E08093CA048091A82386FFB1
:101EF0005BC08091CC0481FD57C0BADB811154C016
:101F000080919A23823041F484E080939A23E8EA16
:101F1000F3E202E0069348C0833009F045C0E1EBEC
:101F2000F3E204E00593E9EAF3E204E005933CC040
:101F300080E18093CA0481E017DF81E815DF0E9409
:101F40008E061092C304E9EAF3E2108296E09093C1
:101F5000A82380E48083E1EBF3E210829093B02326
:101F600080838EE893E28093AC239093AD2384DA50
:101F70001BC08091CB0486FF07C080E48093CA0415
:101F800080E05BDA59D110C08091CB0485FF0CC092
:101F900080E28093CA0481E050DA51D105C080917B
:101FA000CB0484FFE6CFC4CFFF91EF91BF91AF91F7
:101FB0009F918F917F916F915F914F913F912F9161
:101FC0000F910F900BBE0F900FBE0F901F901895A2
:101FD0001F920F920FB60F9211240BB60F920F9310
:101FE0001F932F933F934F935F936F937F938F93A1
:101FF0009F93AF93BF93CF93DF93EF93FF93809122
:10200000CC0481FD03C034DB8111B7C082E0809332
:10201000CC048091C5048195880FE8EAF3E2E81BBF
:10202000F10920813181285A33423695279536951A
:10203000279536952795822F869520FF02C090E838
:1020400001C090E0890FE82FEF70F0E0EE0FFF1F66
:10205000282F332727FD30952227330F221F3327C0
:10206000E20FF31FEE0FFF1FEE0FFF1FEE0FFF1F1C
:10207000E855FC4D908195FF80C000E206938111E8
:1020800077C080919A23843019F43DDAF5D975C070
:10209000C091AA23D091AB238091F0239091F1239A
:1020A000009196231091972398012C0F3D1F8217C2
:1020B000930718F4EC01C01BD10B8091EE23909193
:1020C000EF23AE016EE873E2800F911FFCD00C0F7E
:1020D0001D1F0093962310939723289769F48091EE
:1020E000982390919923800F911F2091EC23309198
:1020F000ED238217930788F00093F0231093F123C8
:10210000E091F423F091F523309729F0199581118E
:1021100002C0DDD932C0E9D930C08091F02390915E
:10212000F12308171907F9F4E091F423F091F5234E
:10213000309711F4CCD921C01995811102C0C7D9AB
:102140001CC02091982330919923809196239091DF
:102150009723820F931F8093982390939923109233
:10216000962310929723E8EAF3E202E0069305C073
:10217000803811F4D0D901C0EADAFF91EF91DF91F4
:10218000CF91BF91AF919F918F917F916F915F910F
:102190004F913F912F911F910F910F900BBE0F9078
:1021A0000FBE0F901F9018950E947F0387E0E0EA12
:1021B000F0E0828378941092E0231092E123109251
:1021C000E2231092E3231092E42381E08093E5233D
:1021D000BDD80E9427010E9457018FEF80936006AF
:1021E00010924006109264060E948C06C0EED3E264
:1021F00081EE93E2A8E4B0E0F8942881211107C0B1
:10220000FC012F5F31913323E1F3211102C0789457
:10221000F3CF3C91E22FF0E0EE5FFF4D232F217FC3
:102220003081232B2C932C9121602C9378948895CA
:102230002C912E7F2C93E0CF0C94570108950C9491
:10224000A70108958091DD23882319F043DC0C94C5
:10225000A80108950C94580108950C9477010895ED
:1022600081E08093DD2308951092DD230895FC0121
:1022700020812A3A69F42181253551F422812A3AB4
:1022800039F48381853521F40E94B8060C945701F6
:102290000895AA1BBB1B51E107C0AA1FBB1FA617AD
:1022A000B70710F0A61BB70B881F991F5A95A9F7FF
:1022B00080959095BC01CD010895EE0FFF1F05900C
:1022C000F491E02D1994FB01DC0102C001900D9204
:1022D00041505040D8F70895FB01DC018D910190E9
:1022E00080190110D9F3990B0895FB01DC010190CD
:0C22F0000D920020E1F70895F894FFCF54
:1022FC0049444C000E060C040006FFFF0901A10125
:10230C0009020903150026FF0075089500810209D2
:10231C00040905150026FF007508950191020906B0
:10232C000907150026FF0075089504B102C0A70423
:10233C00BD04C004680400007C204C2052205020B6
:10234C003E2009022900010100A03209040000020C
:10235C00030000000921110100012235000705814D
:10236C000308000407050203080004001201000220
:10237C0000000008EB03022400010102000100032D
:10238C000000000000000000000000000000000041
:10239C000000000000004849442047656E657269E2
:1023AC00630041544D454C2041534600040309043D
:1023BC0049444C004C4F44004C454E00534D50008A
:00000001FF
