:1000000004C1000023C1000021C100001FC1000085
:100010001DC100001BC1000019C1000017C1000074
:1000200015C1000013C1000011C100000FC1000084
:100030000DC100000BC1000009C1000007C1000094
:1000400005C1000003C1000001C10000FFC00000A5
:10005000FDC00000FBC00000F9C00000F7C00000B8
:10006000F5C00000F3C00000F1C00000EFC00000C8
:10007000EDC00000EBC00000E9C00000E7C00000D8
:10008000E5C00000E3C000003EC10000DFC000008A
:10009000DDC00000DBC00000D9C00000D7C00000F8
:1000A000D5C00000D3C00000D1C00000CFC0000008
:1000B000CDC00000CBC00000C9C00000C7C0000018
:1000C000C5C00000C3C00000C1C00000BFC0000028
:1000D000BDC00000BBC00000B9C00000B7C0000038
:1000E000B5C00000B3C00000B1C00000AFC0000048
:1000F000ADC00000ABC00000A9C00000A7C0000058
:10010000A5C00000A3C00000A1C000009FC0000067
:100110009DC000009BC0000099C0000097C0000077
:1001200095C0000093C0000091C000008FC0000087
:100130008DC000008BC0000089C0000087C0000097
:1001400085C0000083C0000081C000007FC00000A7
:100150007DC000007BC0000079C0000077C00000B7
:1001600075C0000073C0000071C000006FC00000C7
:100170006DC000006BC0000069C0000067C00000D7
:1001800065C0000063C0000061C000005FC00000E7
:100190005DC000005BC0000059C0000057C00000F7
:1001A00055C0000053C0000051C000004FC0000007
:1001B0004DC000004BC0000049C0000047C0000017
:1001C00045C0000043C0000041C000003FC0000027
:1001D0003DC000003BC0000039C0000037C0000037
:1001E00035C0000033C0000031C000002FC0000047
:1001F0002DC000000C94780F0C943510410C220C8B
:10020000270C2C0C310C350C3A0C11241FBECFEFEF
:10021000CDBFDFE3DEBF00E00CBF10E2A0E0B0E244
:10022000E4EAF3E200E00BBF02C007900D92A03DAC
:10023000B107D9F72BE2A0EDB0E201C01D92A43FB7
:10024000B207E1F70E9421110C94D011D9CEE0E65B
:10025000F6E054E0518368E0618391E0918342E0ED
:100260004183A0E4B6E012969C9330E1328320E211
:10027000228380E4828370E87283A0EAB6E0159658
:100280009C93159716964C93169716965C93169713
:1002900016966C93169716963C93169716962C9373
:1002A000169716968C93169716967C93968365836D
:1002B00056834683368326838683868308950895EE
:1002C00040E058E161E080E296E041D340E058E14F
:1002D00062E080E296E03BD340E058E164E080E2F7
:1002E00096E035D340E058E168E080E296E02FD315
:1002F000E0E2F6E08FE0828781E081870895E0E226
:10030000F6E0128608951F920F920FB60F921124F5
:100310000BB60F922F933F934F935F936F937F93FF
:100320008F939F93AF93BF93EF93FF9381E0E0E2AE
:10033000F6E084870E94D10DFF91EF91BF91AF91BC
:100340009F918F917F916F915F914F913F912F91ED
:100350000F900BBE0F900FBE0F901F901895089531
:100360008091D0209091D120181619066CF48EED52
:1003700097E282D36EED77E28EED99E20E94C91189
:100380001092D0201092D1200895992394F040E04B
:1003900050E07DE261E00AC02150310921153105AC
:1003A000D9F74F5F5F4F841795071CF0272F362F23
:1003B000F3CF08952F923F924F925F926F927F9268
:1003C0008F929F92AF92BF92CF92DF92EF92FF9265
:1003D0000F931F93CF93DF93EC0188E0E0E6F6E004
:1003E000868360EC70E280E090E20E94C011892B6D
:1003F00009F086C088818C3471F58CE49FE4A4E414
:10040000B0E08093002090930120A0930220B0934D
:100410000320C0E6D6E088E08E8304E00D8312E07E
:100420001E8385E090E0B1DF1D8385E090E0ADDFC5
:100430000E831E8385E090E0A8DF1D8385E090E0B9
:10044000A4DF0E831E8385E090E09FDF1D8385E09F
:1004500090E09BDFA8C1813411F589E494E4ACE419
:10046000B0E08093002090930120A0930220B093ED
:100470000320C0E6D6E084E08D8312E01E8385E091
:1004800090E083DF1D8385E090E07FDF1E8385E0C1
:1004900090E07BDF1D8385E090E077DF84C18335CA
:1004A00029F583E59DE4A0E5B0E0809300209093DA
:1004B0000120A0930220B0930320C0E6D6E088E09C
:1004C0008E8304E00D8312E01E8385E090E05DDF03
:1004D0001D8385E090E059DF0E831E8385E090E068
:1004E00054DF1D8385E090E050DF5DC1823509F067
:1004F0005AC18EED99E2C0D28AE090E046DF53C146
:1005000064EC70E280E090E20E94C011892B49F512
:10051000288130E02093D2203093D3208CE495E4DE
:10052000AEE4B0E08093002090930120A0930220DD
:10053000B093032082E0E0E6F6E085831092D420B9
:100540001092D5202115310509F42DC1EEEDF5E20B
:10055000C90182529A4D20E32193E817F907E1F788
:1005600022C168EC70E280E090E20E94C011892B09
:1005700009F058C08881813371F482E0E0EAF6E046
:10058000858381E0E0E6F6E0858381E38093DE25E4
:1005900001E010E012C0803371F482E0E0EAF6E09E
:1005A000868381E0E0E6F6E0868380E38093DE25C3
:1005B00001E010E002C000E010E0C0E6D6E084E018
:1005C0008E836894FF24F1F8FE8285E090E0DDDE02
:1005D000FD8285E090E0D9DE8091D4209091D520F5
:1005E00001968093D4209093D5202091D2203091F1
:1005F000D3208217930708F4D6C01092D42010920B
:10060000D520F801E252FA4D108289E494E4ACE47A
:10061000B0E08093002090930120A0930220B0933B
:100620000320C1C06CEC70E280E090E20E94C01137
:10063000892B09F0B8C0A8816091D2207091D32095
:100640008A2F90E08617970708F44EC05C011A14B1
:100650001B040CF07DC0EEEDF3E240E050E080E0E2
:1006600090E010E32A2F30E0261B370B8217930708
:1006700040F0DA01A252BA4D2C9120834F5F5F4FB8
:1006800001C010830196A88131962A2F30E082178D
:10069000930744F30F2EFEEDEF2EF3E2FF2EF02D25
:1006A0000F2EFEED8F2EF7E29F2EF02D00E010E0D2
:1006B000C0E6D6E00F2EF0E4CF2EF6E0DF2EF02DD0
:1006C0000F2EF0EA6F2EF6E07F2EF02D6894332483
:1006D00037F80F2EF0E32F2EF02D6894442442F8C3
:1006E0006894552451F805C05B011616170694F25C
:1006F0002FC0F70181917F01813319F4F1E0FD836F
:1007000004C0803311F481E08E83F601808580FD82
:1007100005C0F4012082F301368209C0F60180850C
:1007200080FF05C081E3F4018083F30135820F5F10
:100730001F4F4E825E8285E090E027DE5D8285E07D
:1007400090E023DEFFEF8F1A9F0A0A151B058CF23B
:10075000F501E252F84D108281E090E08093D020C4
:100760009093D12089E494E4ACE4B0E0809300203D
:1007700090930120A0930220B0930320C0E6D6E01E
:1007800084E08D8312E01E8385E090E0FEDD1D8312
:1007900085E090E0FADD1E8385E090E0F6DD1D83C4
:1007A00085E090E0F2DDDF91CF911F910F91FF90F6
:1007B000EF90DF90CF90BF90AF909F908F907F9001
:1007C0006F905F904F903F902F900895CF93DF935D
:1007D00000D01F92CDB7DEB78FEF8093700080936B
:1007E00071008093720080937300809374008093F3
:1007F00075008093760065E081E490E079D66CE145
:1008000070E082E07BD68A836DE170E082E076D68C
:10081000898389819A81019621F480E493E2898316
:100820009A8389819A818B839C83E0E6F0E08283BE
:100830008C8183838FB7F894E0E5F0E0908192603B
:1008400090838FBF818181FFFDCF8FB7F894A0E5A2
:10085000B0E016969C911697997F16969C931697E2
:10086000E0E6F0E090E895839BEB968316969C91EA
:100870001697946016969C939081916090838FBF99
:1008800061E080E490E034D68FB7F894E0E5F0E0E2
:1008900090819E7F90838FBF2496CDBFDEBFDF9176
:1008A000CF9108959FB7F894E82FF0E0E059FF4FFB
:1008B00060958081682360839FBF08959FB7F894F7
:1008C000E82FF0E0E059FF4F8081682B60839FBFE5
:1008D0000895863011F468E101C060E0E0E5F0E0E1
:1008E000818181FD24C08FB7F894908192609083BC
:1008F0008FBF818181FFFDCF8FB7F894A0E5B0E075
:1009000016969C911697997F16969C931697E0E6FB
:10091000F0E090E895839BEB968316969C91169752
:10092000946016969C939081916090838FBF6360D2
:1009300084E490E0DDD560E480E0B4CF089560E425
:1009400080E0BCDF60E084E490E0D2C50895CF93FE
:10095000DF93FC01709620E030E0C62FD0E0DE018E
:10096000022E02C0B595A7950A94E2F7A0FD508328
:100970002F5F3F4F31962830310589F740FF0AC07D
:1009800041FF03C0FC01658302C0FC016683FC01DA
:10099000618302C0FC016283DF91CF91089580E002
:1009A00008953091E62B2091E72B822F90E003975A
:1009B000E1F431111CC08091EA2B9091EB2B04974C
:1009C000C1F486ED90E28093EC2B9093ED2B81E3C4
:1009D00095E08093F02B9093F12B84E090E080934E
:1009E000EE2B9093EF2B81E0089580E0089580E056
:1009F000089580E0089581E08093DC2208950F93AC
:100A00001F930AE115E021E030E04AED50E260E09A
:100A100082E00E948F0E1F910F9108951092DE22A6
:100A20001092DD2281E08093DC22E9DF81110C94B9
:100A30007D110895811107C06130710519F48AEDA7
:100A400090E2B8DCDCCF08950C948111089521ED7B
:100A500034E049E050E26DED72E28EED92E244C086
:100A600008958091EE2B9091EF2B049721F486ED61
:100A700090E20C9484110895FF920F931F93CF93EB
:100A8000DF93EC018091DC22882339F1FFB6F894E2
:100A900040E052E060E370E08CED90E20E94B9111A
:100AA00080E092E0FE01ACEDB0E201900D92019782
:100AB000E1F70BEF14E020E032E04CED50E260E0B3
:100AC00081E80E948F0E91E089278093DC22FFBE8F
:100AD0009091DC2281E0892701C080E0DF91CF91F5
:100AE0001F910F91FF900895CF93DF93EA014091FA
:100AF000E42B44230CF062C0407609F040C0209102
:100B0000E52B2630E1F56ED1FC012285213299F5E5
:100B10002091E72B2132B9F49C01275F3F4F2093AE
:100B2000EC2B3093ED2B81852091EA2B3091EB2B30
:100B300090E02817390708F4C9018093EE2B9093B1
:100B4000EF2B81E064C0FC013785231316C0C093EE
:100B5000EC2BD093ED2B208931898091EA2B909159
:100B6000EB2B2817390708F4C9018093EE2B9093DB
:100B7000EF2B81E04CC080E04AC080E048C04032AA
:100B8000E9F52091E52B223019F0233061F038C0CF
:100B90008093EC2B9093ED2B81E090E08093EE2BF3
:100BA0009093EF2B34C06093EC2B7093ED2B81E08E
:100BB00090E08093EE2B9093EF2B29C0407640324B
:100BC00009F54091E52B4A3039F04B3059F0493066
:100BD000D9F4F90119951BC02091E72BFC01208362
:100BE00081E015C08091EA2B9091EB2B892B71F459
:100BF0008091E62BFB01808381E009C080E007C083
:100C000080E005C080E003C080E001C080E0DF91AB
:100C1000CF910895E091E422F091E5220190F081D6
:100C2000E02D228133812E0F3F1FFC014081E40F14
:100C3000F11DE217F307A0F481818430A1F086133F
:100C400006C014C081818430A1F08617A9F080818C
:100C5000E80FF11DE217F307A8F380E090E0089594
:100C600080E090E0089580E090E008958E2F9F2F1F
:100C7000089580E090E008958E2F9F2F0895809131
:100C8000E62B8F7783C708959091E622992381F10F
:100C9000E091E422F091E5220190F081E02D948131
:100CA000891740F5E093E222F093E3222281338119
:100CB0002E0F3F1FE217F307F8F49181943061F48F
:100CC0009281981309C09381961306C0E093E222A3
:100CD000F093E32281E008959081E90FF11DE2177E
:100CE000F30758F3E093E222F093E32280E00895C3
:100CF00080E0089580E0089580E00895FF920F93CA
:100D00001F93CF93DF93C82F60E0BEDFF82E8823B8
:100D100081F1A091E422B091E522EC2FF0E0EE0FFA
:100D2000FF1F12962D913C911397E20FF31F008144
:100D30001181D8011696ED91FC9117971995682F9E
:100D40008C2FA2DFF82E8823A1F0C091E222D0914F
:100D5000E32265E0CE015EDFEC01009721F08A819D
:100D60000E943A0FF6CFD8011296ED91FC9113979D
:100D700019958F2DDF91CF911F910F91FF900895BD
:100D80001F93CF93DF93182F7FDF882339F1C09112
:100D9000E222D091E32265E0CE013CDFEC01009736
:100DA00041F04C815D816B818A8113D78111F3CF32
:100DB00015C0A091E422B091E522812F90E0880F28
:100DC000991F1296ED91FC911397E80FF91F01906E
:100DD000F081E02D0190F081E02D1995DF91CF9108
:100DE0001F9108958091E2229091E32208955CC6BC
:100DF0000895CF938091E6228823C1F0E091E42208
:100E0000F091E5220190F081E02D8481882371F03A
:100E1000C0E08C2F73DFCF5FE091E422F091E522F8
:100E20000190F081E02D8481C81798F31092E6229A
:100E30008091E72281FD0E947A111092E7221092A0
:100E4000E822CF910895F3D5D4CF0895CF93809120
:100E5000E622882341F1E091E422F091E522A0818D
:100E6000B18114968C918823F1F0C0E08C2F90E032
:100E7000880F991F0280F381E02DE80FF91F019080
:100E8000F081E02D0084F185E02D309709F019956F
:100E9000CF5FE091E422F091E522A081B181149628
:100EA0008C91C81718F3CF910895EF92FF920F938A
:100EB0001F93CF93DF931092EE2B1092EF2B109293
:100EC000F02B1092F12B1092F22B1092F32B209119
:100ED000E42B22230CF093C28091EA2B9091EB2B10
:100EE000009709F091C287C22F7109F09DC030911F
:100EF000E52B363081F0383009F48BC0311194C0C5
:100F0000029739F462E070E087EE92E259D601E090
:100F1000F5C100E0F3C12091E62B3091E72B832F40
:100F200099278230910579F08330910569F1019715
:100F300009F067C08091482090914920DC016C91B4
:100F400070E03ED64DC0E0914820F0914920818963
:100F5000281708F058C0C9019927880F991F880FD2
:100F6000991FE0914A20F0914B20E80FF91F8081F2
:100F70009181FC016281738123D6E091EC2BF09189
:100F8000ED2B82E081832CC033272130310559F0CD
:100F900020F02230310559F038C064E070E08CEB6D
:100FA00090E20ED61DC082EB90E229E003C086EAF3
:100FB00090E22BE0382FA0E9B0E2E82FF92F8191E1
:100FC00090E08D939D938E2F831B8217C0F3220F89
:100FD00062E0620F60938E2070E08EE890E2F0D5C0
:100FE0008091EA2B9091EB2B2091EE2B3091EF2BFF
:100FF0008217930760F48093EE2B9093EF2B01E020
:101000007DC100E07BC100E079C100E077C101E073
:1010100075C1019739F461E070E086EE92E2D0D5B7
:1010200001E06CC100E06AC1213009F03FC030919D
:10103000E52B3A30D9F5019799F58091E62288237E
:1010400089F1C091E82BD091E92BE090E422F09057
:10105000E522D701ED91FC918481C81728F560E065
:101060008C2F12DE082F882309F448C1CE0199275E
:10107000880F991FD7011296ED91FC911397E80FF5
:10108000F91F0190F081E02D0680F781E02D199580
:101090008093E12261E070E081EE92E291D52EC171
:1010A00000E02CC100E02AC100E028C1223009F094
:1010B00027C12091E52B21111EC1029779F480915F
:1010C000E82BE8D590E08093DF229093E02262E065
:1010D00070E08FED92E274D501E010C100E00EC126
:1010E0002F7109F0AFC08091E52B8330B9F118F46E
:1010F0008130B9F0A7C0853021F0893009F44BC0A8
:10110000A1C08091EA2B9091EB2B892B41F48FE3C6
:1011100096E08093F02B9093F12B01E0EFC000E07C
:10112000EDC08091EA2B9091EB2B892B99F4809163
:10113000E62B9091E72B019779F48091E72290912B
:10114000E8228D7F8093E7229093E8220E947A1113
:1011500001E0D4C000E0D2C000E0D0C08091EA2B12
:101160009091EB2B892B99F48091E62B9091E72BB2
:10117000019779F48091E7229091E8228260809330
:10118000E7229093E8220E94771101E0B7C000E0C7
:10119000B5C000E0B3C08091EA2B9091EB2B892B76
:1011A00009F046C0F6D4882309F444C02091E62B08
:1011B0003091E72B3327E0914820F0914920818935
:1011C00090E082179307C0F114DE8091E62B909196
:1011D000E72B8093E622882389F199278150904C50
:1011E000880F991F880F991FE0914A20F0914B209A
:1011F000E80FF91FE093E422F093E5220190F081DB
:10120000E02D84818823E1F0C0E060E08C2FB8DD20
:10121000082F882309F472C0CF5FE091E422F09197
:10122000E5220190F081E02D8481C81770F366C03B
:1012300000E064C000E062C000E060C001E05EC0A9
:1012400001E05CC0213009F58091E52B8B30E9F499
:101250008091EA2B9091EB2B892B99F48091E622D7
:10126000882389F0C091E82BD091E62B8C2F46DDA6
:10127000082F882309F442C06D2F8C2F81DD082FA1
:101280003DC000E03BC000E039C02230C9F580918C
:10129000E52B813019F08330B1F02FC08091EA2B1B
:1012A0009091EB2B892B59F48091E62B9091E72BB1
:1012B000892B39F48091E82B08D5082F1FC000E056
:1012C0001DC000E01BC08091EA2B9091EB2B892B75
:1012D00071F48091E62B9091E72B892B51F4C8EEA5
:1012E000DBE288818ED58881E2D5082F07C000E037
:1012F00005C000E003C000E001C000E0011189C0AA
:101300008091E42B8F718130C1F58091E622882392
:10131000A1F1C091E82BD091E92B0091E42210912A
:10132000E522D801ED91FC918481C81730F560E089
:101330008C2FAADC882309F1CE019927880F991FE9
:10134000D8011296ED91FC911397E80FF91F0081D7
:101350001181D8011696ED91FC9117971995682F78
:101360008C2F92DC882349F0D8011496ED91FC91E2
:1013700015971995082F81114CC08091E42B8F711E
:101380008230D9F58091E622882389F1E091E42228
:10139000F091E522A081B18114968C91882349F1C6
:1013A00010E0212F30E0220F331F0280F381E02D67
:1013B000E20FF31FC081D181EE81FF811995682F63
:1013C000812F62DC082F882321F1EC81FD811995A2
:1013D000082F81111EC01F5FE091E422F091E522E9
:1013E000A081B18114968C911817D8F212C000E038
:1013F00010C000E00EC000E00CC000E00AC0822F68
:10140000807609F07DCF6CCE322F307609F078CF20
:101410006BCD802FDF91CF911F910F91FF90EF90B7
:10142000089541E050E061E080EA96E090DA41E022
:1014300050E062E080EA96E08ADA41E050E064E061
:1014400080EA96E084DA41E050E068E080EA96E0E5
:101450007EDA41E050E060E180EA96E078DA41E04F
:1014600050E060E280EA96E072DA41E050E060E449
:1014700080EA96E06CDA41E050E060E880EA96E0CD
:1014800066DA41E050E061E080E696E060DA40E054
:1014900050E061E080E496E05ADA41E050E064E038
:1014A00080E696E054DA41E050E062E080E696E0C3
:1014B0004EDA41E050E068E080E696E048DA40E04D
:1014C00058E161E080E296E042DA40E058E162E013
:1014D00080E296E03CDA40E058E164E080E296E0A9
:1014E00036DA40E058E168E080E296E030CA0895DC
:1014F0001BBEFC0128ED24BF608308954091CA0102
:10150000E62FF72F8093CA0184914093CA01089572
:10151000811118C09091DC23992389F09FB7F8942A
:10152000EFEDFBE22081215020839FBF08C09FB7D1
:10153000F894EFEDFBE220812F5F20839FBF809323
:10154000DC2308959091DC23992389F3F8CF0F933E
:10155000E8ECF4E080818F7D808380818F7D8083C3
:10156000E0EBF3E202E005931092B2231092B32372
:1015700000E2069300E40693E8EAF3E200E2069351
:1015800000E406931092F02B1092F12B1092F22BA4
:101590001092F32B1092EE2B1092EF2B10929A23B5
:1015A0000F9108950F9385E080939A23E1EBF3E286
:1015B00004E00593E9EAF3E204E005930F9108954E
:1015C0000F9383E080939A231092B2231092B32357
:1015D000E0EBF3E202E006930F910895E091F02B27
:1015E000F091F12B309709F0199508950F93CF934F
:1015F000DF9380919A23833019F4F0DFA8DF60C075
:101600008091962390919723C091EE2BD091EF2B50
:10161000C81BD90B71F52091982330919923820F23
:10162000931F80939823909399232091EA2B3091D4
:10163000EB2B8217930721F08091E922882341F058
:1016400084E080939A23E8EAF3E202E0069338C04C
:10165000E091F22BF091F32B309799F019958823B4
:1016600081F01092962310929723C091EE2BD09187
:10167000EF2BC830D10528F01092E922C8E0D0E065
:1016800003C081E08093E922C093B223D093B323B7
:1016900080919623909197232091EC2B3091ED2B04
:1016A000280F391F2093B4233093B523C80FD91FB7
:1016B000C0939623D0939723E0EBF3E202E00693E6
:1016C000DF91CF910F910895282F2F7030E0220FD6
:1016D000331F992787FD90958827990F881F992791
:1016E000820F931F02979C01220F331F220F331F7B
:1016F000220F331F820F931F86599C4D08950F931D
:10170000CF938091CC0480FF62C081E08093CC04B1
:10171000E8EAF3E200E80693E0EBF3E200E8069380
:101720008093CA04E8EAF3E200E1069380919A23E9
:10173000882329F08350823008F450DF08DF80913D
:10174000AA239091AB23089709F043C088E0EEE804
:10175000F3E2A4EEBBE201900D928A95E1F7E8EC8A
:10176000F4E08081806280838081806280839DDB61
:10177000C82F811103C016DFC1E02CC08091E42B7B
:1017800088236CF410929823109299231092962338
:101790001092972382E080939A2328DF1BC0209128
:1017A000EA2B3091EB2B232B11F40ADF13C010929C
:1017B000982310929923109296231092972381E0F8
:1017C00080939A23E8EAF3E202E0069303C0C0E0C4
:1017D00001C0C1E08C2FCF910F910895BF92CF929D
:1017E000DF92EF92FF920F931F93CF93DF93B82E68
:1017F0006BDFEC018B2D881F8827881F9B2D9F7026
:10180000E92EF12CEE0CFF1CE80EF11C9701220FC3
:10181000331F220F331F220F331FA90148555C4D80
:101820007A01FA010181077010E0F8013197E73081
:10183000F10518F4E250FF4F8DC56894CC24C3F82D
:10184000D12C23C06894CC24C5F8D12C1EC0689438
:10185000CC24C6F8D12C19C06894CC24C7F8D12C5C
:1018600014C0C12CDD24D39410C0C12C6894DD2495
:10187000D1F80BC00F2ECC24CA94F3E0DF2EF02D4C
:1018800004C06894CC24C4F8D12C882309F44BC03C
:10189000F701268137818D819E81280F391F2D8385
:1018A0003E838B819C812817390781F1AC01421B53
:1018B000530B9A01211554E0350738F02FEF33E030
:1018C000C901B60133D5281B390B888181FF09C0B6
:1018D000C901B6012BD541E0892B09F040E0942FD6
:1018E00001C090E0888190FB81F98883F70116821E
:1018F00017822283338329813A818D819E81820FD1
:10190000931F8483958302E0069387C0888181FFBB
:1019100076C08D7F8883F701168217821282138228
:1019200002E006937AC0F70102811381888182FF69
:1019300013C0E981FA812D813E818B819C81B601A2
:10194000F5D440E4B49EB001112466557D4DAC0140
:10195000CF01820F931F04D52D813E81200F311FAF
:101960002D833E838B819C818217930710F48D8396
:101970009E83F701268137812017310709F03FC088
:101980002D813E818217930709F439C0AC01421BB7
:10199000530B9A01211554E0350740F02FEF33E047
:1019A000C901B601C3D4281B390B05C0C901B60152
:1019B000BDD4281B390BF701128213822C153D056B
:1019C00078F4888184608883F0E4BF9EC00111248C
:1019D00086559D4DF70184839583C682D7820BC0BF
:1019E00049815A818D819E81840F951FF7018483DF
:1019F000958326833783F70102E006930EC0888122
:101A000080FF0BC08E7F8883EF81F885309729F0A7
:101A10006D817E814B2D80E01995DF91CF911F91D3
:101A20000F91FF90EF90DF90CF90BF900895CF93EC
:101A3000CFB7F894E1ECF4E080818E7F8083109240
:101A4000C00410820E949F0480E062DD8FB7F8948A
:101A5000E3EEFBE29081915090838FBFCFBFCF9197
:101A60000895CF93CFB7F89481E052DDEAECF4E02B
:101A700080E4808380E28083E1ECF4E08081816017
:101A80008083A9ECB4E08C9182608C93E8ECF4E064
:101A90008081806480838C9181608C938081806858
:101AA0008083CFBFCF910895CF93DF93C0E6D0E07E
:101AB000188280E30E946904E0ECF4E08081806495
:101AC000808381E08883CFB7F8941092A923109285
:101AD000B1231092B9231092C1231092C9231092FE
:101AE000D123EAE6F3E280818E7F8083E3E7F3E2AD
:101AF00080818E7F8083ECE7F3E280818E7F80831C
:101B0000E5E8F3E280818E7F80836AE170E082E025
:101B1000F5DC8F3F19F08093FA0403C08FE18093C6
:101B2000FA046BE170E082E0E9DC8F3F19F080930A
:101B3000FB0403C08FE18093FB04E0ECF4E08081C0
:101B400082608083808180688083808180618083DF
:101B500088EA93E2868397838081806280838FEF17
:101B60008093C504E8ECF4E080818160808310926A
:101B7000DC238FB7F894E3EEFBE290819F5F9083C4
:101B80008FBF6FDFCFBFDF91CF9108958093C304E4
:101B900008958091C30408958091D8239091D9230A
:101BA00008958091DC2381110AC081E0B1DCE1EC71
:101BB000F4E080818B7F80838081846080830895BE
:101BC0008093EC2B9093ED2B6093EE2B7093EF2B87
:101BD0000895E82FEF70F0E0EE0FFF1F992787FDC3
:101BE00090958827990F881F9927E80FF91FEE0F06
:101BF000FF1FEE0FFF1FEE0FFF1FE855FC4D818109
:101C0000807C09F043C06370613029F010F480E4F7
:101C100003C080E801C080EC40385105E1F050F489
:101C200040325105A1F04034510599F04031510541
:101C300061F419C0411592E0590789F04F3F93E0D4
:101C4000590779F04115514041F020E00DC022E0E4
:101C50000BC023E009C024E007C025E005C026E052
:101C600003C027E001C021E0118296E09083822B1F
:101C700081838181807C803C21F4818187708730E1
:101C800039F081818062818381E0089580E0089548
:101C900081E00895E82FEF70F0E0EE0FFF1F992725
:101CA00087FD90958827990F881F9927E80FF91FBE
:101CB000EE0FFF1FEE0FFF1FEE0FFF1FE855FC4D4D
:101CC000818182FB882780F90895E82FEF70F0E08A
:101CD000EE0FFF1F282F332727FD30952227330FC4
:101CE000221F3327E20FF31FEE0FFF1FEE0FFF1F20
:101CF000EE0FFF1FE855FC4D918192FF0EC09181C0
:101D00009B7F9183E1DCFC01808180FF06C08E7F98
:101D100080830780F085E02D199581E00895CF92AA
:101D2000DF92EF92FF920F931F93CF93DF93D82E02
:101D3000C62E7A01E901C8DCFC018D2D881F882799
:101D4000881FAD2DAF70B0E0AA0FBB1FA80FB11D4B
:101D5000AA0FBB1FAA0FBB1FAA0FBB1FA855BC4DC4
:101D600011969C911197907C09F43FC011969C911B
:101D70001197907C903C29F011969C91119792FDBF
:101D800036C09FB7F894208120FF03C09FBF80E03A
:101D90002FC02081216020839FBFE182F282C38314
:101DA000D4831582168207831087C11005C021E0F5
:101DB000CD2B19F020E001C021E0908120FB91F9AA
:101DC0009B7F9083882329F016961D921C9217976B
:101DD00008C012961D921C92139716961D921C9283
:101DE00017978D2DFBDC81E003C080E001C080E00F
:101DF000DF91CF911F910F91FF90EF90DF90CF90E7
:101E00000895FF920F931F93CF93DF93182FF82E0F
:101E1000FF1CFF24FF1CC82FCF70D0E0CC0FDD1FAC
:101E2000CF0DD11DCC0FDD1FCC0FDD1FCC0FDD1F63
:101E3000C855DC4D49DCDC01FE0102E005938C91C4
:101E400080FF12C08E7F8C931796ED91FC911897AE
:101E5000309751F0FF2019F06E817F8102C06A81B6
:101E60007B81412F81E01995DF91CF911F910F91D7
:101E7000FF900895CF93C82FC4DFEC2FEF70F0E0F0
:101E8000EE0FFF1F8C2F992787FD90958827990FBC
:101E9000881F9927E80FF91FEE0FFF1FEE0FFF1F96
:101EA000EE0FFF1FE855FC4D1182CF9108950F935F
:101EB000E82FEF70F0E0EE0FFF1F282F332727FDEC
:101EC00030952227330F221F3327E20FF31FEE0F27
:101ED000FF1FEE0FFF1FEE0FFF1FE855FC4D918116
:101EE0009460918301E006938CDF81E00F91089567
:101EF0001F920F920FB60F9211240BB60F920F93F1
:101F00002F933F934F935F936F937F938F939F9301
:101F1000AF93BF93EF93FF938091CB0488233CF45E
:101F200080E88093CA040E942607D9D18AC0809194
:101F3000CB0482FF20C084E08093CA048091B02348
:101F400086FF7FC08091CC0481FD7BC0D8DB8111EE
:101F500078C080919A23813011F432DB72C08430D2
:101F600009F06FC0E1EBF3E204E00593E9EAF3E284
:101F700004E0059366C08091CB0481FF5DC082E0E0
:101F80008093CA048091A82386FF5BC08091CC0413
:101F900081FD57C0B4DB811154C080919A238230F7
:101FA00041F484E080939A23E8EAF3E202E00693A6
:101FB00048C0833009F045C0E1EBF3E204E005934B
:101FC000E9EAF3E204E005933CC080E18093CA04AF
:101FD00081E017DF81E815DF0E94F9061092C30443
:101FE000E9EAF3E2108296E09093A82380E48083EC
:101FF000E1EBF3E210829093B02380838EE893E2CA
:102000008093AC239093AD23A2DA1BC08091CB04C4
:1020100086FF07C080E48093CA0480E079DA59D152
:1020200010C08091CB0485FF0CC080E28093CA046D
:1020300081E06EDA51D105C08091CB0484FFE6CFF8
:10204000C4CFFF91EF91BF91AF919F918F917F91FD
:102050006F915F914F913F912F910F910F900BBE18
:102060000F900FBE0F901F9018951F920F920FB6F2
:102070000F9211240BB60F920F931F932F933F9340
:102080004F935F936F937F938F939F93AF93BF9380
:10209000CF93DF93EF93FF938091CC0481FD03C036
:1020A0002EDB8111B7C082E08093CC048091C504FF
:1020B0008195880FE8EAF3E2E81BF109208131817C
:1020C000285A334236952795369527953695279584
:1020D000822F869520FF02C090E801C090E0890F12
:1020E000E82FEF70F0E0EE0FFF1F282F332727FDBA
:1020F00030952227330F221F3327E20FF31FEE0FF5
:10210000FF1FEE0FFF1FEE0FFF1FE855FC4D9081E4
:1021100095FF80C000E20693811177C080919A23D9
:10212000843019F45BDA13DA75C0C091AA23D09118
:10213000AB238091EE2B9091EF2B00919623109181
:10214000972398012C0F3D1F8217930718F4EC0179
:10215000C01BD10B8091EC2B9091ED2BAE016EE862
:1021600073E2800F911FFCD00C0F1D1F009396236C
:1021700010939723289769F480919823909199233D
:10218000800F911F2091EA2B3091EB2B8217930740
:1021900088F00093EE2B1093EF2BE091F22BF0914F
:1021A000F32B309729F01995811102C0FBD932C069
:1021B00007DA30C08091EE2B9091EF2B08171907AA
:1021C000F9F4E091F22BF091F32B309711F4EAD966
:1021D00021C01995811102C0E5D91CC02091982316
:1021E000309199238091962390919723820F931F8A
:1021F000809398239093992310929623109297237B
:10220000E8EAF3E202E0069305C0803811F4EED963
:1022100001C0E4DAFF91EF91DF91CF91BF91AF91CF
:102220009F918F917F916F915F914F913F912F91EE
:102230001F910F910F900BBE0F900FBE0F901F902C
:1022400018950E94E60387E0E0EAF0E08283789444
:102250001092DE2B1092DF2B1092E02B1092E12BCC
:102260001092E22B81E08093E32BDBD80E942701C0
:102270000E945F018FEF80936006109240061092DB
:1022800064060E94F706CEEDDBE28FED9BE2A8E448
:10229000B0E0F8942881211107C0FC012F5F319133
:1022A0003323E1F3211102C07894F3CF3C91E22F64
:1022B000F0E0EE5FFF4D232F217F3081232B2C9305
:1022C0002C9121602C93789488952C912E7F2C93BF
:1022D000E0CF0C945F0108950C94AF0108958091B4
:1022E000DD23882319F058DC0C94B00108950C9478
:1022F000600108950C947F01089581E08093DD23AF
:1023000008951092DD230895FC0120812A3A69F492
:102310002181253551F422812A3A39F4838185358A
:1023200021F40E9423070C945F010895AA1BBB1B94
:1023300051E107C0AA1FBB1FA617B70710F0A61BC5
:10234000B70B881F991F5A95A9F780959095BC01E6
:10235000CD010895EE0FFF1F0590F491E02D199423
:10236000FB01DC0102C001900D9241505040D8F7B2
:102370000895DC0101C06D9341505040E0F708958D
:10238000FB01DC018D91019080190110D9F3990BAB
:102390000895FB01DC0101900D920020E1F7089502
:0423A000F894FFCFDF
:1023A40049444C000E060C040006FFFF0901A1017C
:1023B40009020903150026FF00750895008102092A
:1023C400040905150026FF00750895019102090608
:1023D4000907150026FF0075089504B102C00E0513
:1023E40024052705CF0400007C204C2052205020D7
:1023F4003E2009022900010100A032090400000264
:1024040003000000092111010001223500070581A4
:102414000308000407050203080004001201000277
:1024240000000008EB030224000101020001000384
:102434000000000000000000000000000000000098
:102444000000000000004849442047656E65726939
:10245400630041544D454C20415346000403090494
:1024640049444C004C4F44004C454E00534D5000E1
:00000001FF
